{
  "contractName": "Election",
  "abi": [
    {
      "constant": true,
      "inputs": [
        {
          "name": "",
          "type": "uint256"
        }
      ],
      "name": "candidates",
      "outputs": [
        {
          "name": "id",
          "type": "uint256"
        },
        {
          "name": "name",
          "type": "string"
        },
        {
          "name": "voteCount",
          "type": "uint256"
        }
      ],
      "payable": false,
      "stateMutability": "view",
      "type": "function"
    },
    {
      "constant": true,
      "inputs": [],
      "name": "candidateCount",
      "outputs": [
        {
          "name": "",
          "type": "uint256"
        }
      ],
      "payable": false,
      "stateMutability": "view",
      "type": "function"
    },
    {
      "inputs": [],
      "payable": false,
      "stateMutability": "nonpayable",
      "type": "constructor"
    },
    {
      "constant": true,
      "inputs": [
        {
          "name": "id",
          "type": "uint256"
        }
      ],
      "name": "getCandidate",
      "outputs": [
        {
          "name": "",
          "type": "string"
        }
      ],
      "payable": false,
      "stateMutability": "view",
      "type": "function"
    }
  ],
  "bytecode": "0x608060405234801561001057600080fd5b5061005e6040805190810160405280600281526020017f43310000000000000000000000000000000000000000000000000000000000008152506100b0640100000000026401000000009004565b6100ab6040805190810160405280600281526020017f43320000000000000000000000000000000000000000000000000000000000008152506100b0640100000000026401000000009004565b6101d1565b60016000815480929190600101919050555060606040519081016040528060015481526020018281526020016000815250600080600154815260200190815260200160002060008201518160000155602082015181600101908051906020019061011b92919061012c565b506040820151816002015590505050565b828054600181600116156101000203166002900490600052602060002090601f016020900481019282601f1061016d57805160ff191683800117855561019b565b8280016001018555821561019b579182015b8281111561019a57825182559160200191906001019061017f565b5b5090506101a891906101ac565b5090565b6101ce91905b808211156101ca5760008160009055506001016101b2565b5090565b90565b6103ee806101e06000396000f3fe608060405260043610610057576000357c0100000000000000000000000000000000000000000000000000000000900463ffffffff1680633477ee2e1461005c57806335b8e8201461011e578063a9a981a3146101d2575b600080fd5b34801561006857600080fd5b506100956004803603602081101561007f57600080fd5b81019080803590602001909291905050506101fd565b6040518084815260200180602001838152602001828103825284818151815260200191508051906020019080838360005b838110156100e15780820151818401526020810190506100c6565b50505050905090810190601f16801561010e5780820380516001836020036101000a031916815260200191505b5094505050505060405180910390f35b34801561012a57600080fd5b506101576004803603602081101561014157600080fd5b81019080803590602001909291905050506102bf565b6040518080602001828103825283818151815260200191508051906020019080838360005b8381101561019757808201518184015260208101905061017c565b50505050905090810190601f1680156101c45780820380516001836020036101000a031916815260200191505b509250505060405180910390f35b3480156101de57600080fd5b506101e76103bc565b6040518082815260200191505060405180910390f35b6000602052806000526040600020600091509050806000015490806001018054600181600116156101000203166002900480601f0160208091040260200160405190810160405280929190818152602001828054600181600116156101000203166002900480156102af5780601f10610284576101008083540402835291602001916102af565b820191906000526020600020905b81548152906001019060200180831161029257829003601f168201915b5050505050908060020154905083565b60606000808381526020019081526020016000206001016000808481526020019081526020016000206002015460405160200180807f4e616d653a200000000000000000000000000000000000000000000000000000815250600601838054600181600116156101000203166002900480156103725780601f10610350576101008083540402835291820191610372565b820191906000526020600020905b81548152906001019060200180831161035e575b5050807f20566f74653a2000000000000000000000000000000000000000000000000000815250600701828152602001925050506040516020818303038152906040529050919050565b6001548156fea165627a7a723058201cee2e166420b973d48a3114abbb8d04d5f073c9dff89a65faaf3e481eb9804b0029",
  "source": "pragma solidity ^0.5.0;\r\n\r\ncontract Election{\r\n\r\n    //to model a candidate\r\n    struct Candidate{\r\n        uint id;\r\n        string name;\r\n        uint voteCount;\r\n    }\r\n    \r\n    //to store candidates\r\n    //candidate ID mapped to candidate\r\n    mapping (uint => Candidate) public candidates;\r\n\r\n    uint public candidateCount;\r\n\r\n    constructor() public {\r\n        addCandidate(\"C1\");\r\n        addCandidate(\"C2\");\r\n    }\r\n\r\n    //underscore means local variable, not state variable\r\n    function addCandidate(string memory _name) private{\r\n        candidateCount++;\r\n        candidates[candidateCount] = Candidate(candidateCount, _name, 0);\r\n    }\r\n\r\n    function getCandidate(uint id) public view returns(string memory){\r\n        return string(abi.encodePacked(\"Name: \",candidates[id].name,\" Vote: \",candidates[id].voteCount));\r\n    }\r\n\r\n    function addVote(uint id) private{\r\n        candidates[id].voteCount++;\r\n    }\r\n}",
  "sourcePath": "C:/Users/Yichun/Documents/Projects/Programming/election/contracts/Election.sol",
  "compiler": {
    "name": "solc",
    "version": "0.5.0+commit.1d4f565a.Emscripten.clang"
  },
  "schemaVersion": "3.0.1",
  "updatedAt": "2019-01-15T23:04:58.401Z",
  "devdoc": {
    "methods": {}
  },
  "userdoc": {
    "methods": {}
  }
}